{
  "_format": "hh-sol-artifact-1",
  "contractName": "TOYTOKEN",
  "sourceName": "contracts/TOYTOKEN.sol",
  "abi": [
    {
      "inputs": [],
      "stateMutability": "nonpayable",
      "type": "constructor"
    },
    {
      "anonymous": false,
      "inputs": [
        {
          "indexed": true,
          "internalType": "address",
          "name": "owner",
          "type": "address"
        },
        {
          "indexed": true,
          "internalType": "address",
          "name": "spender",
          "type": "address"
        },
        {
          "indexed": false,
          "internalType": "uint256",
          "name": "value",
          "type": "uint256"
        }
      ],
      "name": "Approval",
      "type": "event"
    },
    {
      "anonymous": false,
      "inputs": [
        {
          "indexed": true,
          "internalType": "address",
          "name": "previousOwner",
          "type": "address"
        },
        {
          "indexed": true,
          "internalType": "address",
          "name": "newOwner",
          "type": "address"
        }
      ],
      "name": "OwnershipTransferred",
      "type": "event"
    },
    {
      "anonymous": false,
      "inputs": [
        {
          "indexed": false,
          "internalType": "uint256",
          "name": "id",
          "type": "uint256"
        }
      ],
      "name": "Snapshot",
      "type": "event"
    },
    {
      "anonymous": false,
      "inputs": [
        {
          "indexed": true,
          "internalType": "address",
          "name": "from",
          "type": "address"
        },
        {
          "indexed": true,
          "internalType": "address",
          "name": "to",
          "type": "address"
        },
        {
          "indexed": false,
          "internalType": "uint256",
          "name": "value",
          "type": "uint256"
        }
      ],
      "name": "Transfer",
      "type": "event"
    },
    {
      "inputs": [
        {
          "internalType": "address",
          "name": "owner",
          "type": "address"
        },
        {
          "internalType": "address",
          "name": "spender",
          "type": "address"
        }
      ],
      "name": "allowance",
      "outputs": [
        {
          "internalType": "uint256",
          "name": "",
          "type": "uint256"
        }
      ],
      "stateMutability": "view",
      "type": "function"
    },
    {
      "inputs": [
        {
          "internalType": "address",
          "name": "spender",
          "type": "address"
        },
        {
          "internalType": "uint256",
          "name": "amount",
          "type": "uint256"
        }
      ],
      "name": "approve",
      "outputs": [
        {
          "internalType": "bool",
          "name": "",
          "type": "bool"
        }
      ],
      "stateMutability": "nonpayable",
      "type": "function"
    },
    {
      "inputs": [
        {
          "internalType": "address",
          "name": "account",
          "type": "address"
        }
      ],
      "name": "balanceOf",
      "outputs": [
        {
          "internalType": "uint256",
          "name": "",
          "type": "uint256"
        }
      ],
      "stateMutability": "view",
      "type": "function"
    },
    {
      "inputs": [
        {
          "internalType": "address",
          "name": "account",
          "type": "address"
        },
        {
          "internalType": "uint256",
          "name": "snapshotId",
          "type": "uint256"
        }
      ],
      "name": "balanceOfAt",
      "outputs": [
        {
          "internalType": "uint256",
          "name": "",
          "type": "uint256"
        }
      ],
      "stateMutability": "view",
      "type": "function"
    },
    {
      "inputs": [],
      "name": "decimals",
      "outputs": [
        {
          "internalType": "uint8",
          "name": "",
          "type": "uint8"
        }
      ],
      "stateMutability": "view",
      "type": "function"
    },
    {
      "inputs": [
        {
          "internalType": "address",
          "name": "spender",
          "type": "address"
        },
        {
          "internalType": "uint256",
          "name": "subtractedValue",
          "type": "uint256"
        }
      ],
      "name": "decreaseAllowance",
      "outputs": [
        {
          "internalType": "bool",
          "name": "",
          "type": "bool"
        }
      ],
      "stateMutability": "nonpayable",
      "type": "function"
    },
    {
      "inputs": [
        {
          "internalType": "address",
          "name": "spender",
          "type": "address"
        },
        {
          "internalType": "uint256",
          "name": "addedValue",
          "type": "uint256"
        }
      ],
      "name": "increaseAllowance",
      "outputs": [
        {
          "internalType": "bool",
          "name": "",
          "type": "bool"
        }
      ],
      "stateMutability": "nonpayable",
      "type": "function"
    },
    {
      "inputs": [],
      "name": "name",
      "outputs": [
        {
          "internalType": "string",
          "name": "",
          "type": "string"
        }
      ],
      "stateMutability": "view",
      "type": "function"
    },
    {
      "inputs": [],
      "name": "owner",
      "outputs": [
        {
          "internalType": "address",
          "name": "",
          "type": "address"
        }
      ],
      "stateMutability": "view",
      "type": "function"
    },
    {
      "inputs": [],
      "name": "renounceOwnership",
      "outputs": [],
      "stateMutability": "nonpayable",
      "type": "function"
    },
    {
      "inputs": [],
      "name": "snapshot",
      "outputs": [],
      "stateMutability": "nonpayable",
      "type": "function"
    },
    {
      "inputs": [],
      "name": "symbol",
      "outputs": [
        {
          "internalType": "string",
          "name": "",
          "type": "string"
        }
      ],
      "stateMutability": "view",
      "type": "function"
    },
    {
      "inputs": [],
      "name": "totalSupply",
      "outputs": [
        {
          "internalType": "uint256",
          "name": "",
          "type": "uint256"
        }
      ],
      "stateMutability": "view",
      "type": "function"
    },
    {
      "inputs": [
        {
          "internalType": "uint256",
          "name": "snapshotId",
          "type": "uint256"
        }
      ],
      "name": "totalSupplyAt",
      "outputs": [
        {
          "internalType": "uint256",
          "name": "",
          "type": "uint256"
        }
      ],
      "stateMutability": "view",
      "type": "function"
    },
    {
      "inputs": [
        {
          "internalType": "address",
          "name": "to",
          "type": "address"
        },
        {
          "internalType": "uint256",
          "name": "amount",
          "type": "uint256"
        }
      ],
      "name": "transfer",
      "outputs": [
        {
          "internalType": "bool",
          "name": "",
          "type": "bool"
        }
      ],
      "stateMutability": "nonpayable",
      "type": "function"
    },
    {
      "inputs": [
        {
          "internalType": "address",
          "name": "from",
          "type": "address"
        },
        {
          "internalType": "address",
          "name": "to",
          "type": "address"
        },
        {
          "internalType": "uint256",
          "name": "amount",
          "type": "uint256"
        }
      ],
      "name": "transferFrom",
      "outputs": [
        {
          "internalType": "bool",
          "name": "",
          "type": "bool"
        }
      ],
      "stateMutability": "nonpayable",
      "type": "function"
    },
    {
      "inputs": [
        {
          "internalType": "address",
          "name": "newOwner",
          "type": "address"
        }
      ],
      "name": "transferOwnership",
      "outputs": [],
      "stateMutability": "nonpayable",
      "type": "function"
    }
  ],
  "bytecode": "0x60806040523480156200001157600080fd5b506040518060400160405280600981526020017f544f5920544f4b454e00000000000000000000000000000000000000000000008152506040518060400160405280600381526020017f544f5900000000000000000000000000000000000000000000000000000000008152508160039080519060200190620000969291906200066a565b508060049080519060200190620000af9291906200066a565b505050620000d2620000c66200011760201b60201c565b6200011f60201b60201c565b6200011133620000e7620001e560201b60201c565b600a620000f59190620008b4565b620186a062000105919062000905565b620001ee60201b60201c565b62000b42565b600033905090565b6000600960009054906101000a900473ffffffffffffffffffffffffffffffffffffffff16905081600960006101000a81548173ffffffffffffffffffffffffffffffffffffffff021916908373ffffffffffffffffffffffffffffffffffffffff1602179055508173ffffffffffffffffffffffffffffffffffffffff168173ffffffffffffffffffffffffffffffffffffffff167f8be0079c531659141344cd1fd0a4f28419497f9722a3daafe3b4186f6b6457e060405160405180910390a35050565b60006012905090565b600073ffffffffffffffffffffffffffffffffffffffff168273ffffffffffffffffffffffffffffffffffffffff160362000260576040517f08c379a00000000000000000000000000000000000000000000000000000000081526004016200025790620009c7565b60405180910390fd5b62000274600083836200036660201b60201c565b8060026000828254620002889190620009e9565b92505081905550806000808473ffffffffffffffffffffffffffffffffffffffff1673ffffffffffffffffffffffffffffffffffffffff1681526020019081526020016000206000828254620002df9190620009e9565b925050819055508173ffffffffffffffffffffffffffffffffffffffff16600073ffffffffffffffffffffffffffffffffffffffff167fddf252ad1be2c89b69c2b068fc378daa952ba7f163c4a11628f55a4df523b3ef8360405162000346919062000a57565b60405180910390a362000362600083836200038360201b60201c565b5050565b6200037e8383836200038860201b620008241760201c565b505050565b505050565b620003a08383836200048160201b620008dc1760201c565b600073ffffffffffffffffffffffffffffffffffffffff168373ffffffffffffffffffffffffffffffffffffffff1603620003fc57620003e6826200048660201b60201c565b620003f6620004e960201b60201c565b6200047c565b600073ffffffffffffffffffffffffffffffffffffffff168273ffffffffffffffffffffffffffffffffffffffff1603620004585762000442836200048660201b60201c565b62000452620004e960201b60201c565b6200047b565b62000469836200048660201b60201c565b6200047a826200048660201b60201c565b5b5b505050565b505050565b620004e6600560008373ffffffffffffffffffffffffffffffffffffffff1673ffffffffffffffffffffffffffffffffffffffff168152602001908152602001600020620004da836200050d60201b60201c565b6200055560201b60201c565b50565b6200050b6006620004ff620005e160201b60201c565b6200055560201b60201c565b565b60008060008373ffffffffffffffffffffffffffffffffffffffff1673ffffffffffffffffffffffffffffffffffffffff168152602001908152602001600020549050919050565b600062000567620005eb60201b60201c565b9050806200057e846000016200060960201b60201c565b1015620005dc5782600001819080600181540180825580915050600190039060005260206000200160009091909190915055826001018290806001815401808255809150506001900390600052602060002001600090919091909150555b505050565b6000600254905090565b60006200060460086200065c60201b620008e11760201c565b905090565b60008082805490500362000621576000905062000657565b816001838054905062000635919062000a74565b8154811062000649576200064862000aaf565b5b906000526020600020015490505b919050565b600081600001549050919050565b828054620006789062000b0d565b90600052602060002090601f0160209004810192826200069c5760008555620006e8565b82601f10620006b757805160ff1916838001178555620006e8565b82800160010185558215620006e8579182015b82811115620006e7578251825591602001919060010190620006ca565b5b509050620006f79190620006fb565b5090565b5b8082111562000716576000816000905550600101620006fc565b5090565b7f4e487b7100000000000000000000000000000000000000000000000000000000600052601160045260246000fd5b60008160011c9050919050565b6000808291508390505b6001851115620007a85780860481111562000780576200077f6200071a565b5b6001851615620007905780820291505b8081029050620007a08562000749565b945062000760565b94509492505050565b600082620007c3576001905062000896565b81620007d3576000905062000896565b8160018114620007ec5760028114620007f7576200082d565b600191505062000896565b60ff8411156200080c576200080b6200071a565b5b8360020a9150848211156200082657620008256200071a565b5b5062000896565b5060208310610133831016604e8410600b8410161715620008675782820a9050838111156200086157620008606200071a565b5b62000896565b62000876848484600162000756565b9250905081840481111562000890576200088f6200071a565b5b81810290505b9392505050565b6000819050919050565b600060ff82169050919050565b6000620008c1826200089d565b9150620008ce83620008a7565b9250620008fd7fffffffffffffffffffffffffffffffffffffffffffffffffffffffffffffffff8484620007b1565b905092915050565b600062000912826200089d565b91506200091f836200089d565b9250817fffffffffffffffffffffffffffffffffffffffffffffffffffffffffffffffff04831182151516156200095b576200095a6200071a565b5b828202905092915050565b600082825260208201905092915050565b7f45524332303a206d696e7420746f20746865207a65726f206164647265737300600082015250565b6000620009af601f8362000966565b9150620009bc8262000977565b602082019050919050565b60006020820190508181036000830152620009e281620009a0565b9050919050565b6000620009f6826200089d565b915062000a03836200089d565b9250827fffffffffffffffffffffffffffffffffffffffffffffffffffffffffffffffff0382111562000a3b5762000a3a6200071a565b5b828201905092915050565b62000a51816200089d565b82525050565b600060208201905062000a6e600083018462000a46565b92915050565b600062000a81826200089d565b915062000a8e836200089d565b92508282101562000aa45762000aa36200071a565b5b828203905092915050565b7f4e487b7100000000000000000000000000000000000000000000000000000000600052603260045260246000fd5b7f4e487b7100000000000000000000000000000000000000000000000000000000600052602260045260246000fd5b6000600282049050600182168062000b2657607f821691505b60208210810362000b3c5762000b3b62000ade565b5b50919050565b611d918062000b526000396000f3fe608060405234801561001057600080fd5b506004361061010b5760003560e01c8063715018a6116100a2578063981b24d011610071578063981b24d0146102aa578063a457c2d7146102da578063a9059cbb1461030a578063dd62ed3e1461033a578063f2fde38b1461036a5761010b565b8063715018a61461025a5780638da5cb5b1461026457806395d89b41146102825780639711715a146102a05761010b565b8063313ce567116100de578063313ce567146101ac57806339509351146101ca5780634ee2cd7e146101fa57806370a082311461022a5761010b565b806306fdde0314610110578063095ea7b31461012e57806318160ddd1461015e57806323b872dd1461017c575b600080fd5b610118610386565b604051610125919061135c565b60405180910390f35b61014860048036038101906101439190611417565b610418565b6040516101559190611472565b60405180910390f35b61016661043b565b604051610173919061149c565b60405180910390f35b610196600480360381019061019191906114b7565b610445565b6040516101a39190611472565b60405180910390f35b6101b4610474565b6040516101c19190611526565b60405180910390f35b6101e460048036038101906101df9190611417565b61047d565b6040516101f19190611472565b60405180910390f35b610214600480360381019061020f9190611417565b6104b4565b604051610221919061149c565b60405180910390f35b610244600480360381019061023f9190611541565b610524565b604051610251919061149c565b60405180910390f35b61026261056c565b005b61026c610580565b604051610279919061157d565b60405180910390f35b61028a6105aa565b604051610297919061135c565b60405180910390f35b6102a861063c565b005b6102c460048036038101906102bf9190611598565b61064f565b6040516102d1919061149c565b60405180910390f35b6102f460048036038101906102ef9190611417565b610680565b6040516103019190611472565b60405180910390f35b610324600480360381019061031f9190611417565b6106f7565b6040516103319190611472565b60405180910390f35b610354600480360381019061034f91906115c5565b61071a565b604051610361919061149c565b60405180910390f35b610384600480360381019061037f9190611541565b6107a1565b005b60606003805461039590611634565b80601f01602080910402602001604051908101604052809291908181526020018280546103c190611634565b801561040e5780601f106103e35761010080835404028352916020019161040e565b820191906000526020600020905b8154815290600101906020018083116103f157829003601f168201915b5050505050905090565b6000806104236108ef565b90506104308185856108f7565b600191505092915050565b6000600254905090565b6000806104506108ef565b905061045d858285610ac0565b610468858585610b4c565b60019150509392505050565b60006012905090565b6000806104886108ef565b90506104a981858561049a858961071a565b6104a49190611694565b6108f7565b600191505092915050565b600080600061050184600560008873ffffffffffffffffffffffffffffffffffffffff1673ffffffffffffffffffffffffffffffffffffffff168152602001908152602001600020610dcb565b91509150816105185761051385610524565b61051a565b805b9250505092915050565b60008060008373ffffffffffffffffffffffffffffffffffffffff1673ffffffffffffffffffffffffffffffffffffffff168152602001908152602001600020549050919050565b610574610ec0565b61057e6000610f3e565b565b6000600960009054906101000a900473ffffffffffffffffffffffffffffffffffffffff16905090565b6060600480546105b990611634565b80601f01602080910402602001604051908101604052809291908181526020018280546105e590611634565b80156106325780601f1061060757610100808354040283529160200191610632565b820191906000526020600020905b81548152906001019060200180831161061557829003601f168201915b5050505050905090565b610644610ec0565b61064c611004565b50565b600080600061065f846006610dcb565b91509150816106755761067061043b565b610677565b805b92505050919050565b60008061068b6108ef565b90506000610699828661071a565b9050838110156106de576040517f08c379a00000000000000000000000000000000000000000000000000000000081526004016106d59061175c565b60405180910390fd5b6106eb82868684036108f7565b60019250505092915050565b6000806107026108ef565b905061070f818585610b4c565b600191505092915050565b6000600160008473ffffffffffffffffffffffffffffffffffffffff1673ffffffffffffffffffffffffffffffffffffffff16815260200190815260200160002060008373ffffffffffffffffffffffffffffffffffffffff1673ffffffffffffffffffffffffffffffffffffffff16815260200190815260200160002054905092915050565b6107a9610ec0565b600073ffffffffffffffffffffffffffffffffffffffff168173ffffffffffffffffffffffffffffffffffffffff1603610818576040517f08c379a000000000000000000000000000000000000000000000000000000000815260040161080f906117ee565b60405180910390fd5b61082181610f3e565b50565b61082f8383836108dc565b600073ffffffffffffffffffffffffffffffffffffffff168373ffffffffffffffffffffffffffffffffffffffff16036108795761086c8261105a565b6108746110ad565b6108d7565b600073ffffffffffffffffffffffffffffffffffffffff168273ffffffffffffffffffffffffffffffffffffffff16036108c3576108b68361105a565b6108be6110ad565b6108d6565b6108cc8361105a565b6108d58261105a565b5b5b505050565b505050565b600081600001549050919050565b600033905090565b600073ffffffffffffffffffffffffffffffffffffffff168373ffffffffffffffffffffffffffffffffffffffff1603610966576040517f08c379a000000000000000000000000000000000000000000000000000000000815260040161095d90611880565b60405180910390fd5b600073ffffffffffffffffffffffffffffffffffffffff168273ffffffffffffffffffffffffffffffffffffffff16036109d5576040517f08c379a00000000000000000000000000000000000000000000000000000000081526004016109cc90611912565b60405180910390fd5b80600160008573ffffffffffffffffffffffffffffffffffffffff1673ffffffffffffffffffffffffffffffffffffffff16815260200190815260200160002060008473ffffffffffffffffffffffffffffffffffffffff1673ffffffffffffffffffffffffffffffffffffffff168152602001908152602001600020819055508173ffffffffffffffffffffffffffffffffffffffff168373ffffffffffffffffffffffffffffffffffffffff167f8c5be1e5ebec7d5bd14f71427d1e84f3dd0314c0f7b2291e5b200ac8c7c3b92583604051610ab3919061149c565b60405180910390a3505050565b6000610acc848461071a565b90507fffffffffffffffffffffffffffffffffffffffffffffffffffffffffffffffff8114610b465781811015610b38576040517f08c379a0000000000000000000000000000000000000000000000000000000008152600401610b2f9061197e565b60405180910390fd5b610b4584848484036108f7565b5b50505050565b600073ffffffffffffffffffffffffffffffffffffffff168373ffffffffffffffffffffffffffffffffffffffff1603610bbb576040517f08c379a0000000000000000000000000000000000000000000000000000000008152600401610bb290611a10565b60405180910390fd5b600073ffffffffffffffffffffffffffffffffffffffff168273ffffffffffffffffffffffffffffffffffffffff1603610c2a576040517f08c379a0000000000000000000000000000000000000000000000000000000008152600401610c2190611aa2565b60405180910390fd5b610c358383836110c1565b60008060008573ffffffffffffffffffffffffffffffffffffffff1673ffffffffffffffffffffffffffffffffffffffff16815260200190815260200160002054905081811015610cbb576040517f08c379a0000000000000000000000000000000000000000000000000000000008152600401610cb290611b34565b60405180910390fd5b8181036000808673ffffffffffffffffffffffffffffffffffffffff1673ffffffffffffffffffffffffffffffffffffffff16815260200190815260200160002081905550816000808573ffffffffffffffffffffffffffffffffffffffff1673ffffffffffffffffffffffffffffffffffffffff1681526020019081526020016000206000828254610d4e9190611694565b925050819055508273ffffffffffffffffffffffffffffffffffffffff168473ffffffffffffffffffffffffffffffffffffffff167fddf252ad1be2c89b69c2b068fc378daa952ba7f163c4a11628f55a4df523b3ef84604051610db2919061149c565b60405180910390a3610dc58484846110d1565b50505050565b60008060008411610e11576040517f08c379a0000000000000000000000000000000000000000000000000000000008152600401610e0890611ba0565b60405180910390fd5b610e196110d6565b841115610e5b576040517f08c379a0000000000000000000000000000000000000000000000000000000008152600401610e5290611c0c565b60405180910390fd5b6000610e7385856000016110e790919063ffffffff16565b905083600001805490508103610e90576000809250925050610eb9565b6001846001018281548110610ea857610ea7611c2c565b5b906000526020600020015492509250505b9250929050565b610ec86108ef565b73ffffffffffffffffffffffffffffffffffffffff16610ee6610580565b73ffffffffffffffffffffffffffffffffffffffff1614610f3c576040517f08c379a0000000000000000000000000000000000000000000000000000000008152600401610f3390611ca7565b60405180910390fd5b565b6000600960009054906101000a900473ffffffffffffffffffffffffffffffffffffffff16905081600960006101000a81548173ffffffffffffffffffffffffffffffffffffffff021916908373ffffffffffffffffffffffffffffffffffffffff1602179055508173ffffffffffffffffffffffffffffffffffffffff168173ffffffffffffffffffffffffffffffffffffffff167f8be0079c531659141344cd1fd0a4f28419497f9722a3daafe3b4186f6b6457e060405160405180910390a35050565b600061101060086111c0565b600061101a6110d6565b90507f8030e83b04d87bef53480e26263266d6ca66863aa8506aca6f2559d18aa1cb678160405161104b919061149c565b60405180910390a18091505090565b6110aa600560008373ffffffffffffffffffffffffffffffffffffffff1673ffffffffffffffffffffffffffffffffffffffff1681526020019081526020016000206110a583610524565b6111d6565b50565b6110bf60066110ba61043b565b6111d6565b565b6110cc838383610824565b505050565b505050565b60006110e260086108e1565b905090565b6000808380549050036110fd57600090506111ba565b600080848054905090505b8082101561116157600061111c8383611251565b90508486828154811061113257611131611c2c565b5b9060005260206000200154111561114b5780915061115b565b6001816111589190611694565b92505b50611108565b6000821180156111995750838560018461117b9190611cc7565b8154811061118c5761118b611c2c565b5b9060005260206000200154145b156111b4576001826111ab9190611cc7565b925050506111ba565b81925050505b92915050565b6001816000016000828254019250508190555050565b60006111e06110d6565b9050806111ef84600001611277565b101561124c5782600001819080600181540180825580915050600190039060005260206000200160009091909190915055826001018290806001815401808255809150506001900390600052602060002001600090919091909150555b505050565b600060028284186112629190611d2a565b82841661126f9190611694565b905092915050565b60008082805490500361128d57600090506112be565b816001838054905061129f9190611cc7565b815481106112b0576112af611c2c565b5b906000526020600020015490505b919050565b600081519050919050565b600082825260208201905092915050565b60005b838110156112fd5780820151818401526020810190506112e2565b8381111561130c576000848401525b50505050565b6000601f19601f8301169050919050565b600061132e826112c3565b61133881856112ce565b93506113488185602086016112df565b61135181611312565b840191505092915050565b600060208201905081810360008301526113768184611323565b905092915050565b600080fd5b600073ffffffffffffffffffffffffffffffffffffffff82169050919050565b60006113ae82611383565b9050919050565b6113be816113a3565b81146113c957600080fd5b50565b6000813590506113db816113b5565b92915050565b6000819050919050565b6113f4816113e1565b81146113ff57600080fd5b50565b600081359050611411816113eb565b92915050565b6000806040838503121561142e5761142d61137e565b5b600061143c858286016113cc565b925050602061144d85828601611402565b9150509250929050565b60008115159050919050565b61146c81611457565b82525050565b60006020820190506114876000830184611463565b92915050565b611496816113e1565b82525050565b60006020820190506114b1600083018461148d565b92915050565b6000806000606084860312156114d0576114cf61137e565b5b60006114de868287016113cc565b93505060206114ef868287016113cc565b925050604061150086828701611402565b9150509250925092565b600060ff82169050919050565b6115208161150a565b82525050565b600060208201905061153b6000830184611517565b92915050565b6000602082840312156115575761155661137e565b5b6000611565848285016113cc565b91505092915050565b611577816113a3565b82525050565b6000602082019050611592600083018461156e565b92915050565b6000602082840312156115ae576115ad61137e565b5b60006115bc84828501611402565b91505092915050565b600080604083850312156115dc576115db61137e565b5b60006115ea858286016113cc565b92505060206115fb858286016113cc565b9150509250929050565b7f4e487b7100000000000000000000000000000000000000000000000000000000600052602260045260246000fd5b6000600282049050600182168061164c57607f821691505b60208210810361165f5761165e611605565b5b50919050565b7f4e487b7100000000000000000000000000000000000000000000000000000000600052601160045260246000fd5b600061169f826113e1565b91506116aa836113e1565b9250827fffffffffffffffffffffffffffffffffffffffffffffffffffffffffffffffff038211156116df576116de611665565b5b828201905092915050565b7f45524332303a2064656372656173656420616c6c6f77616e63652062656c6f7760008201527f207a65726f000000000000000000000000000000000000000000000000000000602082015250565b60006117466025836112ce565b9150611751826116ea565b604082019050919050565b6000602082019050818103600083015261177581611739565b9050919050565b7f4f776e61626c653a206e6577206f776e657220697320746865207a65726f206160008201527f6464726573730000000000000000000000000000000000000000000000000000602082015250565b60006117d86026836112ce565b91506117e38261177c565b604082019050919050565b60006020820190508181036000830152611807816117cb565b9050919050565b7f45524332303a20617070726f76652066726f6d20746865207a65726f2061646460008201527f7265737300000000000000000000000000000000000000000000000000000000602082015250565b600061186a6024836112ce565b91506118758261180e565b604082019050919050565b600060208201905081810360008301526118998161185d565b9050919050565b7f45524332303a20617070726f766520746f20746865207a65726f20616464726560008201527f7373000000000000000000000000000000000000000000000000000000000000602082015250565b60006118fc6022836112ce565b9150611907826118a0565b604082019050919050565b6000602082019050818103600083015261192b816118ef565b9050919050565b7f45524332303a20696e73756666696369656e7420616c6c6f77616e6365000000600082015250565b6000611968601d836112ce565b915061197382611932565b602082019050919050565b600060208201905081810360008301526119978161195b565b9050919050565b7f45524332303a207472616e736665722066726f6d20746865207a65726f20616460008201527f6472657373000000000000000000000000000000000000000000000000000000602082015250565b60006119fa6025836112ce565b9150611a058261199e565b604082019050919050565b60006020820190508181036000830152611a29816119ed565b9050919050565b7f45524332303a207472616e7366657220746f20746865207a65726f206164647260008201527f6573730000000000000000000000000000000000000000000000000000000000602082015250565b6000611a8c6023836112ce565b9150611a9782611a30565b604082019050919050565b60006020820190508181036000830152611abb81611a7f565b9050919050565b7f45524332303a207472616e7366657220616d6f756e742065786365656473206260008201527f616c616e63650000000000000000000000000000000000000000000000000000602082015250565b6000611b1e6026836112ce565b9150611b2982611ac2565b604082019050919050565b60006020820190508181036000830152611b4d81611b11565b9050919050565b7f4552433230536e617073686f743a206964206973203000000000000000000000600082015250565b6000611b8a6016836112ce565b9150611b9582611b54565b602082019050919050565b60006020820190508181036000830152611bb981611b7d565b9050919050565b7f4552433230536e617073686f743a206e6f6e6578697374656e74206964000000600082015250565b6000611bf6601d836112ce565b9150611c0182611bc0565b602082019050919050565b60006020820190508181036000830152611c2581611be9565b9050919050565b7f4e487b7100000000000000000000000000000000000000000000000000000000600052603260045260246000fd5b7f4f776e61626c653a2063616c6c6572206973206e6f7420746865206f776e6572600082015250565b6000611c916020836112ce565b9150611c9c82611c5b565b602082019050919050565b60006020820190508181036000830152611cc081611c84565b9050919050565b6000611cd2826113e1565b9150611cdd836113e1565b925082821015611cf057611cef611665565b5b828203905092915050565b7f4e487b7100000000000000000000000000000000000000000000000000000000600052601260045260246000fd5b6000611d35826113e1565b9150611d40836113e1565b925082611d5057611d4f611cfb565b5b82820490509291505056fea26469706673582212200c14c15820a2b8fa29ed2c0e5f95ee2744fccc3c2aab63236d0f2feccfbe269164736f6c634300080d0033",
  "linkReferences": {},
  "deployedLinkReferences": {}
}